{
  "contractName": "BiometricContract",
  "abi": [
    {
      "anonymous": false,
      "inputs": [
        {
          "indexed": true,
          "internalType": "address",
          "name": "receiver",
          "type": "address"
        },
        {
          "indexed": false,
          "internalType": "bytes32[4]",
          "name": "encryptedData",
          "type": "bytes32[4]"
        }
      ],
      "name": "BiometricDataUpdated",
      "type": "event"
    },
    {
      "inputs": [
        {
          "internalType": "address",
          "name": "",
          "type": "address"
        }
      ],
      "name": "biometricRecords",
      "outputs": [
        {
          "internalType": "address",
          "name": "sender",
          "type": "address"
        },
        {
          "internalType": "bytes32",
          "name": "encryptedComment",
          "type": "bytes32"
        },
        {
          "internalType": "address",
          "name": "authorizedReceiver",
          "type": "address"
        }
      ],
      "stateMutability": "view",
      "type": "function",
      "constant": true
    },
    {
      "inputs": [
        {
          "internalType": "address",
          "name": "",
          "type": "address"
        }
      ],
      "name": "verifiedDoctors",
      "outputs": [
        {
          "internalType": "bool",
          "name": "",
          "type": "bool"
        }
      ],
      "stateMutability": "view",
      "type": "function",
      "constant": true
    },
    {
      "inputs": [
        {
          "internalType": "bytes32[4]",
          "name": "encryptedData",
          "type": "bytes32[4]"
        },
        {
          "internalType": "bytes32",
          "name": "encryptedComment",
          "type": "bytes32"
        },
        {
          "internalType": "address",
          "name": "receiver",
          "type": "address"
        }
      ],
      "name": "sendBiometricData",
      "outputs": [],
      "stateMutability": "nonpayable",
      "type": "function"
    },
    {
      "inputs": [
        {
          "internalType": "address",
          "name": "_account",
          "type": "address"
        },
        {
          "components": [
            {
              "internalType": "address",
              "name": "sender",
              "type": "address"
            },
            {
              "internalType": "bytes32[4]",
              "name": "encryptedData",
              "type": "bytes32[4]"
            },
            {
              "internalType": "bytes32",
              "name": "encryptedComment",
              "type": "bytes32"
            },
            {
              "internalType": "address",
              "name": "authorizedReceiver",
              "type": "address"
            },
            {
              "internalType": "bytes32[]",
              "name": "comments",
              "type": "bytes32[]"
            }
          ],
          "internalType": "struct BiometricContract.BiometricData",
          "name": "_biometricData",
          "type": "tuple"
        }
      ],
      "name": "checkAuth",
      "outputs": [
        {
          "internalType": "bool",
          "name": "",
          "type": "bool"
        }
      ],
      "stateMutability": "view",
      "type": "function",
      "constant": true
    },
    {
      "inputs": [
        {
          "internalType": "address",
          "name": "_account",
          "type": "address"
        }
      ],
      "name": "getBiometricData",
      "outputs": [
        {
          "internalType": "bytes32[4]",
          "name": "",
          "type": "bytes32[4]"
        },
        {
          "internalType": "bytes32",
          "name": "",
          "type": "bytes32"
        }
      ],
      "stateMutability": "view",
      "type": "function",
      "constant": true
    },
    {
      "inputs": [],
      "name": "getComment",
      "outputs": [
        {
          "internalType": "bytes32",
          "name": "",
          "type": "bytes32"
        }
      ],
      "stateMutability": "view",
      "type": "function",
      "constant": true
    },
    {
      "inputs": [
        {
          "internalType": "address",
          "name": "receiverAccount",
          "type": "address"
        },
        {
          "internalType": "bytes32",
          "name": "comment",
          "type": "bytes32"
        }
      ],
      "name": "addComment",
      "outputs": [],
      "stateMutability": "nonpayable",
      "type": "function"
    },
    {
      "inputs": [
        {
          "internalType": "address",
          "name": "doctor",
          "type": "address"
        }
      ],
      "name": "verifyDoctor",
      "outputs": [],
      "stateMutability": "nonpayable",
      "type": "function"
    }
  ],
  "bytecode": "0x608060405234801561001057600080fd5b50611202806100206000396000f3fe608060405234801561001057600080fd5b50600436106100885760003560e01c8063cc7730441161005b578063cc7730441461013a578063cce8d05e14610158578063d80cb05c14610174578063ee4194d21461019057610088565b8063117b47aa1461008d578063265c2aa0146100be5780634f508d33146100ee578063c727b3d91461010a575b600080fd5b6100a760048036038101906100a29190610b3f565b6101c2565b6040516100b5929190610c30565b60405180910390f35b6100d860048036038101906100d39190610f42565b610406565b6040516100e59190610fb9565b60405180910390f35b61010860048036038101906101039190610fd4565b610454565b005b610124600480360381019061011f9190610b3f565b61066d565b6040516101319190610fb9565b60405180910390f35b61014261068d565b60405161014f9190611014565b60405180910390f35b610172600480360381019061016d919061102f565b61076d565b005b61018e60048036038101906101899190610b3f565b610924565b005b6101aa60048036038101906101a59190610b3f565b61098c565b6040516101b993929190611091565b60405180910390f35b6101ca610a01565b6000806000808573ffffffffffffffffffffffffffffffffffffffff1673ffffffffffffffffffffffffffffffffffffffff168152602001908152602001600020905061037533826040518060a00160405290816000820160009054906101000a900473ffffffffffffffffffffffffffffffffffffffff1673ffffffffffffffffffffffffffffffffffffffff1673ffffffffffffffffffffffffffffffffffffffff168152602001600182016004806020026040519081016040528092919082600480156102af576020028201915b81548152602001906001019080831161029b575b50505050508152602001600582015481526020016006820160009054906101000a900473ffffffffffffffffffffffffffffffffffffffff1673ffffffffffffffffffffffffffffffffffffffff1673ffffffffffffffffffffffffffffffffffffffff1681526020016007820180548060200260200160405190810160405280929190818152602001828054801561036757602002820191906000526020600020905b815481526020019060010190808311610353575b505050505081525050610406565b6103b4576040517f08c379a00000000000000000000000000000000000000000000000000000000081526004016103ab90611125565b60405180910390fd5b806001018160050154816004806020026040519081016040528092919082600480156103f5576020028201915b8154815260200190600101908083116103e1575b505050505091509250925050915091565b60008273ffffffffffffffffffffffffffffffffffffffff16826060015173ffffffffffffffffffffffffffffffffffffffff161415610449576001905061044e565b600090505b92915050565b60008060008473ffffffffffffffffffffffffffffffffffffffff1673ffffffffffffffffffffffffffffffffffffffff16815260200190815260200160002090506105fe33826040518060a00160405290816000820160009054906101000a900473ffffffffffffffffffffffffffffffffffffffff1673ffffffffffffffffffffffffffffffffffffffff1673ffffffffffffffffffffffffffffffffffffffff16815260200160018201600480602002604051908101604052809291908260048015610538576020028201915b815481526020019060010190808311610524575b50505050508152602001600582015481526020016006820160009054906101000a900473ffffffffffffffffffffffffffffffffffffffff1673ffffffffffffffffffffffffffffffffffffffff1673ffffffffffffffffffffffffffffffffffffffff168152602001600782018054806020026020016040519081016040528092919081815260200182805480156105f057602002820191906000526020600020905b8154815260200190600101908083116105dc575b505050505081525050610406565b61063d576040517f08c379a000000000000000000000000000000000000000000000000000000000815260040161063490611191565b60405180910390fd5b80600701829080600181540180825580915050600190039060005260206000200160009091909190915055505050565b60016020528060005260406000206000915054906101000a900460ff1681565b6000806000803373ffffffffffffffffffffffffffffffffffffffff1673ffffffffffffffffffffffffffffffffffffffff16815260200190815260200160002090503373ffffffffffffffffffffffffffffffffffffffff168160000160009054906101000a900473ffffffffffffffffffffffffffffffffffffffff1673ffffffffffffffffffffffffffffffffffffffff1614610762576040517f08c379a000000000000000000000000000000000000000000000000000000000815260040161075990611125565b60405180910390fd5b806005015491505090565b60606040518060a001604052803373ffffffffffffffffffffffffffffffffffffffff1681526020018581526020018481526020018373ffffffffffffffffffffffffffffffffffffffff168152602001828152506000808473ffffffffffffffffffffffffffffffffffffffff1673ffffffffffffffffffffffffffffffffffffffff16815260200190815260200160002060008201518160000160006101000a81548173ffffffffffffffffffffffffffffffffffffffff021916908373ffffffffffffffffffffffffffffffffffffffff16021790555060208201518160010190600461085e929190610a23565b506040820151816005015560608201518160060160006101000a81548173ffffffffffffffffffffffffffffffffffffffff021916908373ffffffffffffffffffffffffffffffffffffffff16021790555060808201518160070190805190602001906108cc929190610a63565b509050508173ffffffffffffffffffffffffffffffffffffffff167f68bbbee1dcac77a21fb479fd48e8700b49a18eabd0dedaaab2b03921ffe5c6e18560405161091691906111b1565b60405180910390a250505050565b600061092f826109f6565b905080600160008473ffffffffffffffffffffffffffffffffffffffff1673ffffffffffffffffffffffffffffffffffffffff16815260200190815260200160002060006101000a81548160ff0219169083151502179055505050565b60006020528060005260406000206000915090508060000160009054906101000a900473ffffffffffffffffffffffffffffffffffffffff16908060050154908060060160009054906101000a900473ffffffffffffffffffffffffffffffffffffffff16905083565b600060019050919050565b6040518060800160405280600490602082028036833780820191505090505090565b8260048101928215610a52579160200282015b82811115610a51578251825591602001919060010190610a36565b5b509050610a5f9190610ab0565b5090565b828054828255906000526020600020908101928215610a9f579160200282015b82811115610a9e578251825591602001919060010190610a83565b5b509050610aac9190610ab0565b5090565b5b80821115610ac9576000816000905550600101610ab1565b5090565b6000604051905090565b600080fd5b600080fd5b600073ffffffffffffffffffffffffffffffffffffffff82169050919050565b6000610b0c82610ae1565b9050919050565b610b1c81610b01565b8114610b2757600080fd5b50565b600081359050610b3981610b13565b92915050565b600060208284031215610b5557610b54610ad7565b5b6000610b6384828501610b2a565b91505092915050565b600060049050919050565b600081905092915050565b6000819050919050565b6000819050919050565b610b9f81610b8c565b82525050565b6000610bb18383610b96565b60208301905092915050565b6000602082019050919050565b610bd381610b6c565b610bdd8184610b77565b9250610be882610b82565b8060005b83811015610c19578151610c008782610ba5565b9650610c0b83610bbd565b925050600181019050610bec565b505050505050565b610c2a81610b8c565b82525050565b600060a082019050610c456000830185610bca565b610c526080830184610c21565b9392505050565b600080fd5b6000601f19601f8301169050919050565b7f4e487b7100000000000000000000000000000000000000000000000000000000600052604160045260246000fd5b610ca782610c5e565b810181811067ffffffffffffffff82111715610cc657610cc5610c6f565b5b80604052505050565b6000610cd9610acd565b9050610ce58282610c9e565b919050565b600080fd5b600080fd5b600067ffffffffffffffff821115610d0f57610d0e610c6f565b5b602082029050919050565b600080fd5b610d2881610b8c565b8114610d3357600080fd5b50565b600081359050610d4581610d1f565b92915050565b6000610d5e610d5984610cf4565b610ccf565b90508060208402830185811115610d7857610d77610d1a565b5b835b81811015610da15780610d8d8882610d36565b845260208401935050602081019050610d7a565b5050509392505050565b600082601f830112610dc057610dbf610cef565b5b6004610dcd848285610d4b565b91505092915050565b600067ffffffffffffffff821115610df157610df0610c6f565b5b602082029050602081019050919050565b6000610e15610e1084610dd6565b610ccf565b90508083825260208201905060208402830185811115610e3857610e37610d1a565b5b835b81811015610e615780610e4d8882610d36565b845260208401935050602081019050610e3a565b5050509392505050565b600082601f830112610e8057610e7f610cef565b5b8135610e90848260208601610e02565b91505092915050565b60006101008284031215610eb057610eaf610c59565b5b610eba60a0610ccf565b90506000610eca84828501610b2a565b6000830152506020610ede84828501610dab565b60208301525060a0610ef284828501610d36565b60408301525060c0610f0684828501610b2a565b60608301525060e082013567ffffffffffffffff811115610f2a57610f29610cea565b5b610f3684828501610e6b565b60808301525092915050565b60008060408385031215610f5957610f58610ad7565b5b6000610f6785828601610b2a565b925050602083013567ffffffffffffffff811115610f8857610f87610adc565b5b610f9485828601610e99565b9150509250929050565b60008115159050919050565b610fb381610f9e565b82525050565b6000602082019050610fce6000830184610faa565b92915050565b60008060408385031215610feb57610fea610ad7565b5b6000610ff985828601610b2a565b925050602061100a85828601610d36565b9150509250929050565b60006020820190506110296000830184610c21565b92915050565b600080600060c0848603121561104857611047610ad7565b5b600061105686828701610dab565b935050608061106786828701610d36565b92505060a061107886828701610b2a565b9150509250925092565b61108b81610b01565b82525050565b60006060820190506110a66000830186611082565b6110b36020830185610c21565b6110c06040830184611082565b949350505050565b600082825260208201905092915050565b7f4163636573732064656e69656400000000000000000000000000000000000000600082015250565b600061110f600d836110c8565b915061111a826110d9565b602082019050919050565b6000602082019050818103600083015261113e81611102565b9050919050565b7f42696f6d657472696320616363657373206e6f7420616c6c6f77656400000000600082015250565b600061117b601c836110c8565b915061118682611145565b602082019050919050565b600060208201905081810360008301526111aa8161116e565b9050919050565b60006080820190506111c66000830184610bca565b9291505056fea2646970667358221220273310b6aed3602bc408a757f35170590ba773ffbf95d0452b2ebe02a9d2ba8064736f6c634300080b0033",
  "immutableReferences": {},
  "source": "/**\n * @title ContractName\n   * @dev ContractDescription\n   * @custom:dev-run-script file_path\n   */\npragma solidity ^0.8.0;\n\ncontract BiometricContract {\n    struct BiometricData {\n        address sender;\n        bytes32[4] encryptedData;\n        bytes32 encryptedComment;\n        // mapping(address => bool) authorizedReceivers;\n        address authorizedReceiver;\n        // mapping(address => bytes32) comments;\n        bytes32[] comments;\n    }\n\n    mapping(address => BiometricData) public biometricRecords;\n    mapping(address => bool) public verifiedDoctors;\n\n    event BiometricDataUpdated(address indexed receiver, bytes32[4] encryptedData);\n\n    // function encryptData(fixed[4] memory data, address[] memory receivers, bytes32 comment, uint256 unlockTime) public returns (bytes32[4] memory) {\n    //     bytes32[4] memory encryptedData;\n\n    //     //     .\n    //     //      .\n\n    //     for (uint256 i = 0; i < 4; i++) {\n    //         //    encryptedData .\n    //         //        .\n    //         encryptedData[i] = keccak256(abi.encodePacked(data[i]));\n    //     }\n\n    //     sendBiometricData(encryptedData, comment, receivers, unlockTime);\n\n    //     return encryptedData;\n    // }\n\n    function sendBiometricData(bytes32[4] memory encryptedData, bytes32 encryptedComment, address receiver) public {\n        // require(receivers.length > 0, \"At least one receiver required\");\n        // address receiver = receivers[i];\n        // require(receiver != address(0), \"Invalid receiver address\");\n        // require(biometricRecords[receiver].encryptedData[0] == bytes32(0), \"Data already exists for receiver\");\n        // require(verifiedDoctors[receiver], \"Receiver is not a verified doctor\");\n\n        // address[] memory emptyArr;\n        bytes32[] memory emptyArr_;\n\n\n        biometricRecords[receiver] = BiometricData({\n            sender: msg.sender,\n            encryptedData: encryptedData,\n            encryptedComment: encryptedComment,\n            authorizedReceiver:receiver,\n            comments:emptyArr_\n        });\n\n        //     \n        // biometricRecords[receiver].authorizedReceivers[receiver] = true;\n        // biometricRecords[receiver].authorizedReceivers.push(receiver);\n\n        emit BiometricDataUpdated(receiver, encryptedData);\n\n    }\n\n    function checkAuth(address _account ,BiometricData memory _biometricData) public view returns (bool){\n        if (_biometricData.authorizedReceiver == _account){\n            return true;\n        }\n        else{\n            return false;\n        }\n    }\n\n    // function getComment(address _account, BiometricData memory _biometricData) public view returns (bytes32[]){\n    //     bytes32[] comments;\n    //     for (uint i=0; i<_biometricData.comments.length;i++){\n    //         //      comments  push\n\n    //     }\n\n    //     return comments;\n    // }\n\n    function getBiometricData(address _account) public view returns (bytes32[4] memory, bytes32) {\n        BiometricData storage data = biometricRecords[_account];\n        require(checkAuth(msg.sender,data), \"Access denied\");\n        // //    .\n        // bytes32[4] memory decryptedData;\n        // for (uint256 i = 0; i < 4; i++) {\n        //     //    decryptedData .\n        //     //        .\n        //     decryptedData[i] = decryptWithPrivateKey(data.encryptedData[i]);\n        // }\n\n        return (data.encryptedData, data.encryptedComment);\n    }\n\n    function getComment() public view returns (bytes32 ) {\n        BiometricData storage data = biometricRecords[msg.sender];\n        require(data.sender == msg.sender, \"Access denied\");\n        return data.encryptedComment;\n    }\n\n    function addComment(address receiverAccount,bytes32 comment) public {\n        BiometricData storage data = biometricRecords[receiverAccount];\n        require(checkAuth(msg.sender,data),\"Biometric access not allowed\");\n        data.comments.push(comment);\n    }\n\n    function verifyDoctor(address doctor) public {\n        //    .\n        //      API    .\n        bool isVerified = verifyDoctorLicense(doctor);\n        verifiedDoctors[doctor] = isVerified;\n    }\n\n    function verifyDoctorLicense(address doctor) internal pure returns (bool) {\n        //    .\n        //        .\n        //    true .\n        return true;\n    }\n\n    // //  ,         .\n    // function decryptWithPrivateKey(bytes32 encryptedData) internal pure returns (bytes memory) {\n    //     //       .\n    //     //          .\n    //     //      .\n    //     return abi.encodePacked(encryptedData);\n    // }\n}\n",
  "sourcePath": "/Users/dy/workspace/new_v/VitalSign/contracts/BiometricContract.sol",
  "compiler": {
    "name": "solc",
    "version": "0.8.11+commit.d7f03943.Emscripten.clang"
  },
  "schemaVersion": "3.4.14",
  "updatedAt": "2023-06-04T02:49:51.919Z",
  "networkType": "ethereum",
  "devdoc": {
    "kind": "dev",
    "methods": {},
    "version": 1
  },
  "userdoc": {
    "kind": "user",
    "methods": {},
    "version": 1
  }
}