{
  "contractName": "BiometricContract",
  "abi": [
    {
      "anonymous": false,
      "inputs": [
        {
          "indexed": true,
          "internalType": "address",
          "name": "receiver",
          "type": "address"
        },
        {
          "indexed": false,
          "internalType": "bytes32[4]",
          "name": "encryptedData",
          "type": "bytes32[4]"
        }
      ],
      "name": "BiometricDataUpdated",
      "type": "event"
    },
    {
      "inputs": [
        {
          "internalType": "address",
          "name": "",
          "type": "address"
        }
      ],
      "name": "biometricRecords",
      "outputs": [
        {
          "internalType": "address",
          "name": "sender",
          "type": "address"
        },
        {
          "internalType": "bytes32",
          "name": "encryptedComment",
          "type": "bytes32"
        },
        {
          "internalType": "uint256",
          "name": "unlockTime",
          "type": "uint256"
        }
      ],
      "stateMutability": "view",
      "type": "function",
      "constant": true
    },
    {
      "inputs": [
        {
          "internalType": "address",
          "name": "",
          "type": "address"
        }
      ],
      "name": "verifiedDoctors",
      "outputs": [
        {
          "internalType": "bool",
          "name": "",
          "type": "bool"
        }
      ],
      "stateMutability": "view",
      "type": "function",
      "constant": true
    },
    {
      "inputs": [
        {
          "internalType": "bytes32[4]",
          "name": "encryptedData",
          "type": "bytes32[4]"
        },
        {
          "internalType": "bytes32",
          "name": "encryptedComment",
          "type": "bytes32"
        },
        {
          "internalType": "address[]",
          "name": "receivers",
          "type": "address[]"
        },
        {
          "internalType": "uint256",
          "name": "unlockTime",
          "type": "uint256"
        }
      ],
      "name": "sendBiometricData",
      "outputs": [],
      "stateMutability": "nonpayable",
      "type": "function"
    },
    {
      "inputs": [
        {
          "internalType": "address",
          "name": "_account",
          "type": "address"
        },
        {
          "components": [
            {
              "internalType": "address",
              "name": "sender",
              "type": "address"
            },
            {
              "internalType": "bytes32[4]",
              "name": "encryptedData",
              "type": "bytes32[4]"
            },
            {
              "internalType": "bytes32",
              "name": "encryptedComment",
              "type": "bytes32"
            },
            {
              "internalType": "uint256",
              "name": "unlockTime",
              "type": "uint256"
            },
            {
              "internalType": "address[]",
              "name": "authorizedReceivers",
              "type": "address[]"
            },
            {
              "internalType": "bytes32[]",
              "name": "comments",
              "type": "bytes32[]"
            }
          ],
          "internalType": "struct BiometricContract.BiometricData",
          "name": "_biometricData",
          "type": "tuple"
        }
      ],
      "name": "checkAuth",
      "outputs": [
        {
          "internalType": "bool",
          "name": "",
          "type": "bool"
        }
      ],
      "stateMutability": "view",
      "type": "function",
      "constant": true
    },
    {
      "inputs": [
        {
          "internalType": "address",
          "name": "_account",
          "type": "address"
        }
      ],
      "name": "getBiometricData",
      "outputs": [
        {
          "internalType": "bytes32[4]",
          "name": "",
          "type": "bytes32[4]"
        },
        {
          "internalType": "bytes32",
          "name": "",
          "type": "bytes32"
        },
        {
          "internalType": "uint256",
          "name": "",
          "type": "uint256"
        }
      ],
      "stateMutability": "view",
      "type": "function",
      "constant": true
    },
    {
      "inputs": [],
      "name": "getComment",
      "outputs": [
        {
          "internalType": "bytes32[]",
          "name": "",
          "type": "bytes32[]"
        }
      ],
      "stateMutability": "view",
      "type": "function",
      "constant": true
    },
    {
      "inputs": [
        {
          "internalType": "address",
          "name": "receiverAccount",
          "type": "address"
        },
        {
          "internalType": "bytes32",
          "name": "comment",
          "type": "bytes32"
        }
      ],
      "name": "addComment",
      "outputs": [],
      "stateMutability": "nonpayable",
      "type": "function"
    },
    {
      "inputs": [
        {
          "internalType": "address",
          "name": "doctor",
          "type": "address"
        }
      ],
      "name": "verifyDoctor",
      "outputs": [],
      "stateMutability": "nonpayable",
      "type": "function"
    }
  ],
  "bytecode": "0x608060405234801561001057600080fd5b50611bc5806100206000396000f3fe608060405234801561001057600080fd5b50600436106100885760003560e01c8063c727b3d91161005b578063c727b3d914610127578063cc77304414610157578063d80cb05c14610175578063ee4194d21461019157610088565b80630a574b7a1461008d578063117b47aa146100bd5780634d9df9fb146100ef5780634f508d331461010b575b600080fd5b6100a760048036038101906100a29190611421565b6101c3565b6040516100b49190611498565b60405180910390f35b6100d760048036038101906100d291906114b3565b610253565b6040516100e6939291906115a9565b60405180910390f35b610109600480360381019061010491906115e0565b61052b565b005b61012560048036038101906101209190611663565b610971565b005b610141600480360381019061013c91906114b3565b610c13565b60405161014e9190611498565b60405180910390f35b61015f610c33565b60405161016c919061173a565b60405180910390f35b61018f600480360381019061018a91906114b3565b610d62565b005b6101ab60048036038101906101a691906114b3565b610dca565b6040516101ba9392919061176b565b60405180910390f35b600080600090505b826080015151811015610247578373ffffffffffffffffffffffffffffffffffffffff1683608001518281518110610206576102056117a2565b5b602002602001015173ffffffffffffffffffffffffffffffffffffffff16141561023457600191505061024d565b808061023f90611800565b9150506101cb565b50600090505b92915050565b61025b610e1f565b60008060008060008673ffffffffffffffffffffffffffffffffffffffff1673ffffffffffffffffffffffffffffffffffffffff168152602001908152602001600020905042816006015410156102e7576040517f08c379a00000000000000000000000000000000000000000000000000000000081526004016102de906118a6565b60405180910390fd5b61049133826040518060c00160405290816000820160009054906101000a900473ffffffffffffffffffffffffffffffffffffffff1673ffffffffffffffffffffffffffffffffffffffff1673ffffffffffffffffffffffffffffffffffffffff16815260200160018201600480602002604051908101604052809291908260048015610389576020028201915b815481526020019060010190808311610375575b5050505050815260200160058201548152602001600682015481526020016007820180548060200260200160405190810160405280929190818152602001828054801561042b57602002820191906000526020600020905b8160009054906101000a900473ffffffffffffffffffffffffffffffffffffffff1673ffffffffffffffffffffffffffffffffffffffff16815260200190600101908083116103e1575b505050505081526020016008820180548060200260200160405190810160405280929190818152602001828054801561048357602002820191906000526020600020905b81548152602001906001019080831161046f575b5050505050815250506101c3565b6104d0576040517f08c379a00000000000000000000000000000000000000000000000000000000081526004016104c790611912565b60405180910390fd5b806001018160050154826006015482600480602002604051908101604052809291908260048015610516576020028201915b815481526020019060010190808311610502575b50505050509250935093509350509193909250565b600082511161056f576040517f08c379a00000000000000000000000000000000000000000000000000000000081526004016105669061197e565b60405180910390fd5b60005b825181101561096a5760008382815181106105905761058f6117a2565b5b60200260200101519050600073ffffffffffffffffffffffffffffffffffffffff168173ffffffffffffffffffffffffffffffffffffffff16141561060a576040517f08c379a0000000000000000000000000000000000000000000000000000000008152600401610601906119ea565b60405180910390fd5b6000801b6000808373ffffffffffffffffffffffffffffffffffffffff1673ffffffffffffffffffffffffffffffffffffffff168152602001908152602001600020600101600060048110610662576106616117a2565b5b0154146106a4576040517f08c379a000000000000000000000000000000000000000000000000000000000815260040161069b90611a56565b60405180910390fd5b600160008273ffffffffffffffffffffffffffffffffffffffff1673ffffffffffffffffffffffffffffffffffffffff16815260200190815260200160002060009054906101000a900460ff16610730576040517f08c379a000000000000000000000000000000000000000000000000000000000815260040161072790611ae8565b60405180910390fd5b6060806040518060c001604052803373ffffffffffffffffffffffffffffffffffffffff168152602001898152602001888152602001868152602001838152602001828152506000808573ffffffffffffffffffffffffffffffffffffffff1673ffffffffffffffffffffffffffffffffffffffff16815260200190815260200160002060008201518160000160006101000a81548173ffffffffffffffffffffffffffffffffffffffff021916908373ffffffffffffffffffffffffffffffffffffffff160217905550602082015181600101906004610812929190610e41565b5060408201518160050155606082015181600601556080820151816007019080519060200190610843929190610e81565b5060a0820151816008019080519060200190610860929190610f0b565b509050506000808473ffffffffffffffffffffffffffffffffffffffff1673ffffffffffffffffffffffffffffffffffffffff168152602001908152602001600020600701839080600181540180825580915050600190039060005260206000200160009091909190916101000a81548173ffffffffffffffffffffffffffffffffffffffff021916908373ffffffffffffffffffffffffffffffffffffffff1602179055508273ffffffffffffffffffffffffffffffffffffffff167f68bbbee1dcac77a21fb479fd48e8700b49a18eabd0dedaaab2b03921ffe5c6e18960405161094c9190611b08565b60405180910390a2505050808061096290611800565b915050610572565b5050505050565b60008060008473ffffffffffffffffffffffffffffffffffffffff1673ffffffffffffffffffffffffffffffffffffffff1681526020019081526020016000209050610b5d33826040518060c00160405290816000820160009054906101000a900473ffffffffffffffffffffffffffffffffffffffff1673ffffffffffffffffffffffffffffffffffffffff1673ffffffffffffffffffffffffffffffffffffffff16815260200160018201600480602002604051908101604052809291908260048015610a55576020028201915b815481526020019060010190808311610a41575b50505050508152602001600582015481526020016006820154815260200160078201805480602002602001604051908101604052809291908181526020018280548015610af757602002820191906000526020600020905b8160009054906101000a900473ffffffffffffffffffffffffffffffffffffffff1673ffffffffffffffffffffffffffffffffffffffff1681526020019060010190808311610aad575b5050505050815260200160088201805480602002602001604051908101604052809291908181526020018280548015610b4f57602002820191906000526020600020905b815481526020019060010190808311610b3b575b5050505050815250506101c3565b610b9c576040517f08c379a0000000000000000000000000000000000000000000000000000000008152600401610b9390611b6f565b60405180910390fd5b4281600601541015610be3576040517f08c379a0000000000000000000000000000000000000000000000000000000008152600401610bda906118a6565b60405180910390fd5b80600801829080600181540180825580915050600190039060005260206000200160009091909190915055505050565b60016020528060005260406000206000915054906101000a900460ff1681565b606060008060003373ffffffffffffffffffffffffffffffffffffffff1673ffffffffffffffffffffffffffffffffffffffff16815260200190815260200160002090503373ffffffffffffffffffffffffffffffffffffffff168160000160009054906101000a900473ffffffffffffffffffffffffffffffffffffffff1673ffffffffffffffffffffffffffffffffffffffff1614610d09576040517f08c379a0000000000000000000000000000000000000000000000000000000008152600401610d0090611912565b60405180910390fd5b80600801805480602002602001604051908101604052809291908181526020018280548015610d5757602002820191906000526020600020905b815481526020019060010190808311610d43575b505050505091505090565b6000610d6d82610e14565b905080600160008473ffffffffffffffffffffffffffffffffffffffff1673ffffffffffffffffffffffffffffffffffffffff16815260200190815260200160002060006101000a81548160ff0219169083151502179055505050565b60006020528060005260406000206000915090508060000160009054906101000a900473ffffffffffffffffffffffffffffffffffffffff16908060050154908060060154905083565b600060019050919050565b6040518060800160405280600490602082028036833780820191505090505090565b8260048101928215610e70579160200282015b82811115610e6f578251825591602001919060010190610e54565b5b509050610e7d9190610f58565b5090565b828054828255906000526020600020908101928215610efa579160200282015b82811115610ef95782518260006101000a81548173ffffffffffffffffffffffffffffffffffffffff021916908373ffffffffffffffffffffffffffffffffffffffff16021790555091602001919060010190610ea1565b5b509050610f079190610f75565b5090565b828054828255906000526020600020908101928215610f47579160200282015b82811115610f46578251825591602001919060010190610f2b565b5b509050610f549190610f58565b5090565b5b80821115610f71576000816000905550600101610f59565b5090565b5b80821115610f8e576000816000905550600101610f76565b5090565b6000604051905090565b600080fd5b600080fd5b600073ffffffffffffffffffffffffffffffffffffffff82169050919050565b6000610fd182610fa6565b9050919050565b610fe181610fc6565b8114610fec57600080fd5b50565b600081359050610ffe81610fd8565b92915050565b600080fd5b6000601f19601f8301169050919050565b7f4e487b7100000000000000000000000000000000000000000000000000000000600052604160045260246000fd5b61105282611009565b810181811067ffffffffffffffff821117156110715761107061101a565b5b80604052505050565b6000611084610f92565b90506110908282611049565b919050565b600080fd5b600080fd5b600067ffffffffffffffff8211156110ba576110b961101a565b5b602082029050919050565b600080fd5b6000819050919050565b6110dd816110ca565b81146110e857600080fd5b50565b6000813590506110fa816110d4565b92915050565b600061111361110e8461109f565b61107a565b9050806020840283018581111561112d5761112c6110c5565b5b835b81811015611156578061114288826110eb565b84526020840193505060208101905061112f565b5050509392505050565b600082601f8301126111755761117461109a565b5b6004611182848285611100565b91505092915050565b6000819050919050565b61119e8161118b565b81146111a957600080fd5b50565b6000813590506111bb81611195565b92915050565b600067ffffffffffffffff8211156111dc576111db61101a565b5b602082029050602081019050919050565b60006112006111fb846111c1565b61107a565b90508083825260208201905060208402830185811115611223576112226110c5565b5b835b8181101561124c57806112388882610fef565b845260208401935050602081019050611225565b5050509392505050565b600082601f83011261126b5761126a61109a565b5b813561127b8482602086016111ed565b91505092915050565b600067ffffffffffffffff82111561129f5761129e61101a565b5b602082029050602081019050919050565b60006112c36112be84611284565b61107a565b905080838252602082019050602084028301858111156112e6576112e56110c5565b5b835b8181101561130f57806112fb88826110eb565b8452602084019350506020810190506112e8565b5050509392505050565b600082601f83011261132e5761132d61109a565b5b813561133e8482602086016112b0565b91505092915050565b6000610120828403121561135e5761135d611004565b5b61136860c061107a565b9050600061137884828501610fef565b600083015250602061138c84828501611160565b60208301525060a06113a0848285016110eb565b60408301525060c06113b4848285016111ac565b60608301525060e082013567ffffffffffffffff8111156113d8576113d7611095565b5b6113e484828501611256565b60808301525061010082013567ffffffffffffffff81111561140957611408611095565b5b61141584828501611319565b60a08301525092915050565b6000806040838503121561143857611437610f9c565b5b600061144685828601610fef565b925050602083013567ffffffffffffffff81111561146757611466610fa1565b5b61147385828601611347565b9150509250929050565b60008115159050919050565b6114928161147d565b82525050565b60006020820190506114ad6000830184611489565b92915050565b6000602082840312156114c9576114c8610f9c565b5b60006114d784828501610fef565b91505092915050565b600060049050919050565b600081905092915050565b6000819050919050565b611509816110ca565b82525050565b600061151b8383611500565b60208301905092915050565b6000602082019050919050565b61153d816114e0565b61154781846114eb565b9250611552826114f6565b8060005b8381101561158357815161156a878261150f565b965061157583611527565b925050600181019050611556565b505050505050565b611594816110ca565b82525050565b6115a38161118b565b82525050565b600060c0820190506115be6000830186611534565b6115cb608083018561158b565b6115d860a083018461159a565b949350505050565b60008060008060e085870312156115fa576115f9610f9c565b5b600061160887828801611160565b9450506080611619878288016110eb565b93505060a085013567ffffffffffffffff81111561163a57611639610fa1565b5b61164687828801611256565b92505060c0611657878288016111ac565b91505092959194509250565b6000806040838503121561167a57611679610f9c565b5b600061168885828601610fef565b9250506020611699858286016110eb565b9150509250929050565b600081519050919050565b600082825260208201905092915050565b6000819050602082019050919050565b6000602082019050919050565b60006116e7826116a3565b6116f181856116ae565b93506116fc836116bf565b8060005b8381101561172d578151611714888261150f565b975061171f836116cf565b925050600181019050611700565b5085935050505092915050565b6000602082019050818103600083015261175481846116dc565b905092915050565b61176581610fc6565b82525050565b6000606082019050611780600083018661175c565b61178d602083018561158b565b61179a604083018461159a565b949350505050565b7f4e487b7100000000000000000000000000000000000000000000000000000000600052603260045260246000fd5b7f4e487b7100000000000000000000000000000000000000000000000000000000600052601160045260246000fd5b600061180b8261118b565b91507fffffffffffffffffffffffffffffffffffffffffffffffffffffffffffffffff82141561183e5761183d6117d1565b5b600182019050919050565b600082825260208201905092915050565b7f44617461206c6f636b6564000000000000000000000000000000000000000000600082015250565b6000611890600b83611849565b915061189b8261185a565b602082019050919050565b600060208201905081810360008301526118bf81611883565b9050919050565b7f4163636573732064656e69656400000000000000000000000000000000000000600082015250565b60006118fc600d83611849565b9150611907826118c6565b602082019050919050565b6000602082019050818103600083015261192b816118ef565b9050919050565b7f4174206c65617374206f6e652072656365697665722072657175697265640000600082015250565b6000611968601e83611849565b915061197382611932565b602082019050919050565b600060208201905081810360008301526119978161195b565b9050919050565b7f496e76616c696420726563656976657220616464726573730000000000000000600082015250565b60006119d4601883611849565b91506119df8261199e565b602082019050919050565b60006020820190508181036000830152611a03816119c7565b9050919050565b7f4461746120616c72656164792065786973747320666f72207265636569766572600082015250565b6000611a40602083611849565b9150611a4b82611a0a565b602082019050919050565b60006020820190508181036000830152611a6f81611a33565b9050919050565b7f5265636569766572206973206e6f74206120766572696669656420646f63746f60008201527f7200000000000000000000000000000000000000000000000000000000000000602082015250565b6000611ad2602183611849565b9150611add82611a76565b604082019050919050565b60006020820190508181036000830152611b0181611ac5565b9050919050565b6000608082019050611b1d6000830184611534565b92915050565b7f42696f6d657472696320616363657373206e6f7420616c6c6f77656400000000600082015250565b6000611b59601c83611849565b9150611b6482611b23565b602082019050919050565b60006020820190508181036000830152611b8881611b4c565b905091905056fea264697066735822122065304f0c6df128e9a163eec3b149e06b7f8c9f0f435a75c65089d311229c5c6a64736f6c634300080b0033",
  "immutableReferences": {},
  "source": "  /**\n   * @title ContractName\n   * @dev ContractDescription\n   * @custom:dev-run-script file_path\n   */\npragma solidity ^0.8.11;\n\ncontract BiometricContract {\n    struct BiometricData {\n        address sender;\n        bytes32[4] encryptedData;\n        bytes32 encryptedComment;\n        uint256 unlockTime;\n        // mapping(address => bool) authorizedReceivers;\n        address[] authorizedReceivers;\n        // mapping(address => bytes32) comments;\n        bytes32[] comments;\n    }\n\n    mapping(address => BiometricData) public biometricRecords;\n    mapping(address => bool) public verifiedDoctors;\n\n    event BiometricDataUpdated(address indexed receiver, bytes32[4] encryptedData);\n\n    // function encryptData(fixed[4] memory data, address[] memory receivers, bytes32 comment, uint256 unlockTime) public returns (bytes32[4] memory) {\n    //     bytes32[4] memory encryptedData;\n\n    //     //     .\n    //     //      .\n\n    //     for (uint256 i = 0; i < 4; i++) {\n    //         //    encryptedData .\n    //         //        .\n    //         encryptedData[i] = keccak256(abi.encodePacked(data[i]));\n    //     }\n\n    //     sendBiometricData(encryptedData, comment, receivers, unlockTime);\n\n    //     return encryptedData;\n    // }\n\n    function sendBiometricData(bytes32[4] memory encryptedData, bytes32 encryptedComment, address[] memory receivers, uint256 unlockTime) public {\n        require(receivers.length > 0, \"At least one receiver required\");\n\n        for (uint256 i = 0; i < receivers.length; i++) {\n            address receiver = receivers[i];\n            require(receiver != address(0), \"Invalid receiver address\");\n            require(biometricRecords[receiver].encryptedData[0] == bytes32(0), \"Data already exists for receiver\");\n            require(verifiedDoctors[receiver], \"Receiver is not a verified doctor\");\n\n            address[] memory emptyArr;\n            bytes32[] memory emptyArr_;\n\n \n            biometricRecords[receiver] = BiometricData({\n                sender: msg.sender,\n                encryptedData: encryptedData,\n                encryptedComment: encryptedComment,\n                unlockTime: unlockTime,\n                authorizedReceivers:emptyArr,\n                comments:emptyArr_\n            });\n\n            //     \n            // biometricRecords[receiver].authorizedReceivers[receiver] = true;\n            biometricRecords[receiver].authorizedReceivers.push(receiver);\n\n            emit BiometricDataUpdated(receiver, encryptedData);\n        }\n    }\n\n    function checkAuth(address _account ,BiometricData memory _biometricData) public view returns (bool){\n        for(uint i=0; i < _biometricData.authorizedReceivers.length;i++){\n            if(_biometricData.authorizedReceivers[i] == _account){\n                return true;\n            }\n        }\n        return false;\n    } \n\n    // function getComment(address _account, BiometricData memory _biometricData) public view returns (bytes32[]){\n    //     bytes32[] comments;\n    //     for (uint i=0; i<_biometricData.comments.length;i++){\n    //         //      comments  push\n            \n    //     }\n\n    //     return comments;\n    // }\n\n    function getBiometricData(address _account) public view returns (bytes32[4] memory, bytes32, uint256) {\n        BiometricData storage data = biometricRecords[_account];\n        require(data.unlockTime >= block.timestamp, \"Data locked\");\n        require(checkAuth(msg.sender,data), \"Access denied\");\n        // //    .\n        // bytes32[4] memory decryptedData;\n        // for (uint256 i = 0; i < 4; i++) {\n        //     //    decryptedData .\n        //     //        .\n        //     decryptedData[i] = decryptWithPrivateKey(data.encryptedData[i]);\n        // }\n\n        return (data.encryptedData, data.encryptedComment, data.unlockTime);\n    }\n\n    function getComment() public view returns (bytes32[] memory ) {\n        BiometricData storage data = biometricRecords[msg.sender];\n        require(data.sender == msg.sender, \"Access denied\");\n        return data.comments;\n    }\n\n    function addComment(address receiverAccount,bytes32 comment) public {\n        BiometricData storage data = biometricRecords[receiverAccount];\n        require(checkAuth(msg.sender,data),\"Biometric access not allowed\");\n        require(data.unlockTime >= block.timestamp, \"Data locked\");\n        data.comments.push(comment);\n    }\n\n    function verifyDoctor(address doctor) public {\n        //    .\n        //      API    .\n        bool isVerified = verifyDoctorLicense(doctor);\n        verifiedDoctors[doctor] = isVerified;\n    }\n\n    function verifyDoctorLicense(address doctor) internal pure returns (bool) {\n        //    .\n        //        .\n        //    true .\n        return true;\n    }\n\n    // //  ,         .\n    // function decryptWithPrivateKey(bytes32 encryptedData) internal pure returns (bytes memory) {\n    //     //       .\n    //     //          .\n    //     //      .\n    //     return abi.encodePacked(encryptedData);\n    // }\n}\n",
  "sourcePath": "/Users/daeyeolkim/VitalSign/contracts/BiometricContract.sol",
  "compiler": {
    "name": "solc",
    "version": "0.8.11+commit.d7f03943.Emscripten.clang"
  },
  "schemaVersion": "3.4.7",
  "updatedAt": "2023-06-03T10:43:14.852Z",
  "networkType": "ethereum",
  "devdoc": {
    "kind": "dev",
    "methods": {},
    "version": 1
  },
  "userdoc": {
    "kind": "user",
    "methods": {},
    "version": 1
  }
}