{
  "contractName": "Contract",
  "abi": [
    {
      "inputs": [
        {
          "internalType": "contract IWorldID",
          "name": "_worldId",
          "type": "address"
        },
        {
          "internalType": "string",
          "name": "_appId",
          "type": "string"
        },
        {
          "internalType": "string",
          "name": "_actionId",
          "type": "string"
        }
      ],
      "stateMutability": "nonpayable",
      "type": "constructor"
    },
    {
      "inputs": [],
      "name": "InvalidNullifier",
      "type": "error"
    },
    {
      "inputs": [
        {
          "internalType": "address",
          "name": "signal",
          "type": "address"
        },
        {
          "internalType": "uint256",
          "name": "root",
          "type": "uint256"
        },
        {
          "internalType": "uint256",
          "name": "nullifierHash",
          "type": "uint256"
        },
        {
          "internalType": "uint256[8]",
          "name": "proof",
          "type": "uint256[8]"
        }
      ],
      "name": "verifyAndExecute",
      "outputs": [
        {
          "internalType": "string",
          "name": "",
          "type": "string"
        }
      ],
      "stateMutability": "nonpayable",
      "type": "function"
    }
  ],
  "bytecode": "0x60e0604052600160c0908152503480156200001957600080fd5b5060405162000a6d38038062000a6d83398181016040528101906200003f919062000341565b8273ffffffffffffffffffffffffffffffffffffffff1660808173ffffffffffffffffffffffffffffffffffffffff1681525050620000e2620000ae836040516020016200008e919062000428565b604051602081830303815290604052620000f260201b6200019c1760201c565b82604051602001620000c292919062000470565b604051602081830303815290604052620000f260201b6200019c1760201c565b60a0818152505050505062000502565b6000600882604051602001620001099190620004e9565b6040516020818303038152906040528051906020012060001c901c9050919050565b6000604051905090565b600080fd5b600080fd5b600073ffffffffffffffffffffffffffffffffffffffff82169050919050565b60006200016c826200013f565b9050919050565b600062000180826200015f565b9050919050565b620001928162000173565b81146200019e57600080fd5b50565b600081519050620001b28162000187565b92915050565b600080fd5b600080fd5b6000601f19601f8301169050919050565b7f4e487b7100000000000000000000000000000000000000000000000000000000600052604160045260246000fd5b6200020d82620001c2565b810181811067ffffffffffffffff821117156200022f576200022e620001d3565b5b80604052505050565b6000620002446200012b565b905062000252828262000202565b919050565b600067ffffffffffffffff821115620002755762000274620001d3565b5b6200028082620001c2565b9050602081019050919050565b60005b83811015620002ad57808201518184015260208101905062000290565b83811115620002bd576000848401525b50505050565b6000620002da620002d48462000257565b62000238565b905082815260208101848484011115620002f957620002f8620001bd565b5b620003068482856200028d565b509392505050565b600082601f830112620003265762000325620001b8565b5b815162000338848260208601620002c3565b91505092915050565b6000806000606084860312156200035d576200035c62000135565b5b60006200036d86828701620001a1565b935050602084015167ffffffffffffffff8111156200039157620003906200013a565b5b6200039f868287016200030e565b925050604084015167ffffffffffffffff811115620003c357620003c26200013a565b5b620003d1868287016200030e565b9150509250925092565b600081519050919050565b600081905092915050565b6000620003fe82620003db565b6200040a8185620003e6565b93506200041c8185602086016200028d565b80840191505092915050565b6000620004368284620003f1565b915081905092915050565b6000819050919050565b6000819050919050565b6200046a620004648262000441565b6200044b565b82525050565b60006200047e828562000455565b602082019150620004908284620003f1565b91508190509392505050565b600081519050919050565b600081905092915050565b6000620004bf826200049c565b620004cb8185620004a7565b9350620004dd8185602086016200028d565b80840191505092915050565b6000620004f78284620004b2565b915081905092915050565b60805160a05160c05161053e6200052f600039600060a10152600060eb015260006064015261053e6000f3fe608060405234801561001057600080fd5b506004361061002b5760003560e01c8063e9b7055314610030575b600080fd5b61004a60048036038101906100459190610293565b610060565b6040516100579190610394565b60405180910390f35b60607f000000000000000000000000000000000000000000000000000000000000000073ffffffffffffffffffffffffffffffffffffffff16633bc778e3857f00000000000000000000000000000000000000000000000000000000000000006100e8896040516020016100d491906103fe565b60405160208183030381529060405261019c565b877f0000000000000000000000000000000000000000000000000000000000000000886040518763ffffffff1660e01b815260040161012c96959493929190610448565b60006040518083038186803b15801561014457600080fd5b505afa158015610158573d6000803e3d6000fd5b505050506040518060400160405280600f81526020017f56657269667920636f6d706c65746500000000000000000000000000000000008152509050949350505050565b60006008826040516020016101b191906104f1565b6040516020818303038152906040528051906020012060001c901c9050919050565b600080fd5b600073ffffffffffffffffffffffffffffffffffffffff82169050919050565b6000610203826101d8565b9050919050565b610213816101f8565b811461021e57600080fd5b50565b6000813590506102308161020a565b92915050565b6000819050919050565b61024981610236565b811461025457600080fd5b50565b60008135905061026681610240565b92915050565b600080fd5b60008190508260206008028201111561028d5761028c61026c565b5b92915050565b60008060008061016085870312156102ae576102ad6101d3565b5b60006102bc87828801610221565b94505060206102cd87828801610257565b93505060406102de87828801610257565b92505060606102ef87828801610271565b91505092959194509250565b600081519050919050565b600082825260208201905092915050565b60005b8381101561033557808201518184015260208101905061031a565b83811115610344576000848401525b50505050565b6000601f19601f8301169050919050565b6000610366826102fb565b6103708185610306565b9350610380818560208601610317565b6103898161034a565b840191505092915050565b600060208201905081810360008301526103ae818461035b565b905092915050565b60008160601b9050919050565b60006103ce826103b6565b9050919050565b60006103e0826103c3565b9050919050565b6103f86103f3826101f8565b6103d5565b82525050565b600061040a82846103e7565b60148201915081905092915050565b61042281610236565b82525050565b82818337600083830152505050565b6104446101008383610428565b5050565b60006101a08201905061045e6000830189610419565b61046b6020830188610419565b6104786040830187610419565b6104856060830186610419565b6104926080830185610419565b61049f60a0830184610437565b979650505050505050565b600081519050919050565b600081905092915050565b60006104cb826104aa565b6104d581856104b5565b93506104e5818560208601610317565b80840191505092915050565b60006104fd82846104c0565b91508190509291505056fea26469706673582212205b35ec5eb22848770e8f3384b3d5cea66ed9d3bc1fae28a1efe03e8fd30bfc8264736f6c634300080b0033",
  "immutableReferences": {
    "15": [
      {
        "length": 32,
        "start": 100
      }
    ],
    "18": [
      {
        "length": 32,
        "start": 235
      }
    ],
    "22": [
      {
        "length": 32,
        "start": 161
      }
    ]
  },
  "source": "// SPDX-License-Identifier: MIT\npragma solidity ^0.8.0;\n\nimport {ByteHasher} from \"./helpers/ByteHasher.sol\";\nimport {IWorldID} from \"./interfaces/IWorldID.sol\";\n\ncontract Contract {\n    using ByteHasher for bytes;\n\n    ///////////////////////////////////////////////////////////////////////////////\n    ///                                  ERRORS                                ///\n    //////////////////////////////////////////////////////////////////////////////\n\n    /// @notice Thrown when attempting to reuse a nullifier\n    error InvalidNullifier();\n\n    /// @dev The World ID instance that will be used for verifying proofs\n    IWorldID internal immutable worldId;\n\n    /// @dev The contract's external nullifier hash\n    uint256 internal immutable externalNullifier;\n\n    /// @dev The World ID group ID (always 1)\n    uint256 internal immutable groupId = 1;\n\n    /// @dev Whether a nullifier hash has been used already. Used to guarantee an action is only performed once by a single person\n    mapping(uint256 => bool) internal nullifierHashes;\n\n    /// @param _worldId The WorldID instance that will verify the proofs\n    /// @param _appId The World ID app ID\n    /// @param _actionId The World ID action ID\n    constructor(\n        IWorldID _worldId,\n        string memory _appId,\n        string memory _actionId\n    ) {\n        worldId = _worldId;\n        externalNullifier = abi\n            .encodePacked(abi.encodePacked(_appId).hashToField(), _actionId)\n            .hashToField();\n    }\n\n    /// @param signal An arbitrary input from the user, usually the user's wallet address (check README for further details)\n    /// @param root The root of the Merkle tree (returned by the JS widget).\n    /// @param nullifierHash The nullifier hash for this proof, preventing double signaling (returned by the JS widget).\n    /// @param proof The zero-knowledge proof that demonstrates the claimer is registered with World ID (returned by the JS widget).\n    /// @dev Feel free to rename this method however you want! We've used `claim`, `verify` or `execute` in the past.\n    function verifyAndExecute(\n        address signal,\n        uint256 root,\n        uint256 nullifierHash,\n        uint256[8] calldata proof\n    ) public returns (string memory){\n        // First, we make sure this person hasn't done this before\n//        if (nullifierHashes[nullifierHash]) revert InvalidNullifier();\n\n        // We now verify the provided proof is valid and the user is verified by World ID\n        worldId.verifyProof(\n            root,\n            groupId,\n            abi.encodePacked(signal).hashToField(),\n            nullifierHash,\n            externalNullifier,\n            proof\n        );\n\n        // We now record the user has done this, so they can't do it again (proof of uniqueness)\n//        nullifierHashes[nullifierHash] = true;\n\n        // Finally, execute your logic here, for example issue a token, NFT, etc...\n        // Make sure to emit some kind of event afterwards!\n        return \"Verify complete\";\n    }\n}\n",
  "sourcePath": "/Users/dy/workspace/new_v/VitalSign/contracts/Contract.sol",
  "compiler": {
    "name": "solc",
    "version": "0.8.11+commit.d7f03943.Emscripten.clang"
  },
  "schemaVersion": "3.4.14",
  "updatedAt": "2023-06-04T02:49:51.922Z",
  "networkType": "ethereum",
  "devdoc": {
    "kind": "dev",
    "methods": {
      "constructor": {
        "params": {
          "_actionId": "The World ID action ID",
          "_appId": "The World ID app ID",
          "_worldId": "The WorldID instance that will verify the proofs"
        }
      },
      "verifyAndExecute(address,uint256,uint256,uint256[8])": {
        "details": "Feel free to rename this method however you want! We've used `claim`, `verify` or `execute` in the past.",
        "params": {
          "nullifierHash": "The nullifier hash for this proof, preventing double signaling (returned by the JS widget).",
          "proof": "The zero-knowledge proof that demonstrates the claimer is registered with World ID (returned by the JS widget).",
          "root": "The root of the Merkle tree (returned by the JS widget).",
          "signal": "An arbitrary input from the user, usually the user's wallet address (check README for further details)"
        }
      }
    },
    "stateVariables": {
      "externalNullifier": {
        "details": "The contract's external nullifier hash"
      },
      "groupId": {
        "details": "The World ID group ID (always 1)"
      },
      "nullifierHashes": {
        "details": "Whether a nullifier hash has been used already. Used to guarantee an action is only performed once by a single person"
      },
      "worldId": {
        "details": "The World ID instance that will be used for verifying proofs"
      }
    },
    "version": 1
  },
  "userdoc": {
    "errors": {
      "InvalidNullifier()": [
        {
          "notice": "Thrown when attempting to reuse a nullifier"
        }
      ]
    },
    "kind": "user",
    "methods": {},
    "version": 1
  }
}